{
    "contractName": "DoggiesContract",
    "abi": [
        {
            "anonymous": false,
            "inputs": [
                {
                    "indexed": true,
                    "internalType": "address",
                    "name": "owner",
                    "type": "address"
                },
                {
                    "indexed": true,
                    "internalType": "address",
                    "name": "approved",
                    "type": "address"
                },
                {
                    "indexed": true,
                    "internalType": "uint256",
                    "name": "tokenId",
                    "type": "uint256"
                }
            ],
            "name": "Approval",
            "type": "event"
        },
        {
            "anonymous": false,
            "inputs": [
                {
                    "indexed": false,
                    "internalType": "address",
                    "name": "owner",
                    "type": "address"
                },
                {
                    "indexed": false,
                    "internalType": "uint256",
                    "name": "doggieId",
                    "type": "uint256"
                },
                {
                    "indexed": false,
                    "internalType": "uint256",
                    "name": "mumId",
                    "type": "uint256"
                },
                {
                    "indexed": false,
                    "internalType": "uint256",
                    "name": "dadId",
                    "type": "uint256"
                },
                {
                    "indexed": false,
                    "internalType": "uint256",
                    "name": "genes",
                    "type": "uint256"
                }
            ],
            "name": "Birth",
            "type": "event"
        },
        {
            "anonymous": false,
            "inputs": [
                {
                    "indexed": true,
                    "internalType": "address",
                    "name": "previousOwner",
                    "type": "address"
                },
                {
                    "indexed": true,
                    "internalType": "address",
                    "name": "newOwner",
                    "type": "address"
                }
            ],
            "name": "OwnershipTransferred",
            "type": "event"
        },
        {
            "anonymous": false,
            "inputs": [
                {
                    "indexed": true,
                    "internalType": "address",
                    "name": "from",
                    "type": "address"
                },
                {
                    "indexed": true,
                    "internalType": "address",
                    "name": "to",
                    "type": "address"
                },
                {
                    "indexed": true,
                    "internalType": "uint256",
                    "name": "tokenId",
                    "type": "uint256"
                }
            ],
            "name": "Transfer",
            "type": "event"
        },
        {
            "inputs": [],
            "name": "CreationLimitGen0",
            "outputs": [
                {
                    "internalType": "uint256",
                    "name": "",
                    "type": "uint256"
                }
            ],
            "stateMutability": "view",
            "type": "function",
            "constant": true
        },
        {
            "inputs": [
                {
                    "internalType": "uint256",
                    "name": "",
                    "type": "uint256"
                }
            ],
            "name": "doggieIndexToOwner",
            "outputs": [
                {
                    "internalType": "address",
                    "name": "",
                    "type": "address"
                }
            ],
            "stateMutability": "view",
            "type": "function",
            "constant": true
        },
        {
            "inputs": [],
            "name": "gen0Counter",
            "outputs": [
                {
                    "internalType": "uint256",
                    "name": "",
                    "type": "uint256"
                }
            ],
            "stateMutability": "view",
            "type": "function",
            "constant": true
        },
        {
            "inputs": [],
            "name": "name",
            "outputs": [
                {
                    "internalType": "string",
                    "name": "",
                    "type": "string"
                }
            ],
            "stateMutability": "view",
            "type": "function",
            "constant": true
        },
        {
            "inputs": [],
            "name": "owner",
            "outputs": [
                {
                    "internalType": "address",
                    "name": "",
                    "type": "address"
                }
            ],
            "stateMutability": "view",
            "type": "function",
            "constant": true
        },
        {
            "inputs": [],
            "name": "renounceOwnership",
            "outputs": [],
            "stateMutability": "nonpayable",
            "type": "function"
        },
        {
            "inputs": [],
            "name": "symbol",
            "outputs": [
                {
                    "internalType": "string",
                    "name": "",
                    "type": "string"
                }
            ],
            "stateMutability": "view",
            "type": "function",
            "constant": true
        },
        {
            "inputs": [
                {
                    "internalType": "address",
                    "name": "newOwner",
                    "type": "address"
                }
            ],
            "name": "transferOwnership",
            "outputs": [],
            "stateMutability": "nonpayable",
            "type": "function"
        },
        {
            "inputs": [
                {
                    "internalType": "uint256",
                    "name": "_doggieId",
                    "type": "uint256"
                }
            ],
            "name": "getDoggie",
            "outputs": [
                {
                    "internalType": "uint256",
                    "name": "",
                    "type": "uint256"
                },
                {
                    "internalType": "uint64",
                    "name": "",
                    "type": "uint64"
                },
                {
                    "internalType": "uint32",
                    "name": "",
                    "type": "uint32"
                },
                {
                    "internalType": "uint32",
                    "name": "",
                    "type": "uint32"
                },
                {
                    "internalType": "uint16",
                    "name": "",
                    "type": "uint16"
                }
            ],
            "stateMutability": "view",
            "type": "function",
            "constant": true
        },
        {
            "inputs": [
                {
                    "internalType": "uint256",
                    "name": "_genes",
                    "type": "uint256"
                }
            ],
            "name": "createDoggieGene0",
            "outputs": [],
            "stateMutability": "nonpayable",
            "type": "function"
        },
        {
            "inputs": [
                {
                    "internalType": "address",
                    "name": "owner",
                    "type": "address"
                }
            ],
            "name": "balanceOf",
            "outputs": [
                {
                    "internalType": "uint256",
                    "name": "balance",
                    "type": "uint256"
                }
            ],
            "stateMutability": "view",
            "type": "function",
            "constant": true
        },
        {
            "inputs": [],
            "name": "totalSupply",
            "outputs": [
                {
                    "internalType": "uint256",
                    "name": "total",
                    "type": "uint256"
                }
            ],
            "stateMutability": "view",
            "type": "function",
            "constant": true
        },
        {
            "inputs": [
                {
                    "internalType": "uint256",
                    "name": "tokenId",
                    "type": "uint256"
                }
            ],
            "name": "ownerOf",
            "outputs": [
                {
                    "internalType": "address",
                    "name": "",
                    "type": "address"
                }
            ],
            "stateMutability": "view",
            "type": "function",
            "constant": true
        },
        {
            "inputs": [
                {
                    "internalType": "address",
                    "name": "_to",
                    "type": "address"
                },
                {
                    "internalType": "uint256",
                    "name": "_tokenId",
                    "type": "uint256"
                }
            ],
            "name": "transfer",
            "outputs": [],
            "stateMutability": "nonpayable",
            "type": "function"
        }
    ],
    "bytecode": "0x608060405234801561001057600080fd5b5061002d61002261003260201b60201c565b61003a60201b60201c565b6100fe565b600033905090565b60008060009054906101000a900473ffffffffffffffffffffffffffffffffffffffff169050816000806101000a81548173ffffffffffffffffffffffffffffffffffffffff021916908373ffffffffffffffffffffffffffffffffffffffff1602179055508173ffffffffffffffffffffffffffffffffffffffff168173ffffffffffffffffffffffffffffffffffffffff167f8be0079c531659141344cd1fd0a4f28419497f9722a3daafe3b4186f6b6457e060405160405180910390a35050565b6111408061010d6000396000f3fe608060405234801561001057600080fd5b50600436106100ea5760003560e01c80638634e79c1161008c578063a9059cbb11610066578063a9059cbb1461023f578063ef5e94aa1461025b578063f2fde38b14610279578063f34f09a114610295576100ea565b80638634e79c146101e55780638da5cb5b1461020357806395d89b4114610221576100ea565b80635bd8712b116100c85780635bd8712b1461015f5780636352211e1461017b57806370a08231146101ab578063715018a6146101db576100ea565b806306fdde03146100ef57806318160ddd1461010d578063202139101461012b575b600080fd5b6100f76102c5565b6040516101049190610dbc565b60405180910390f35b6101156102fe565b6040516101229190610e1e565b60405180910390f35b61014560048036038101906101409190610c57565b61030b565b604051610156959493929190610e39565b60405180910390f35b61017960048036038101906101749190610c57565b6103a7565b005b61019560048036038101906101909190610c57565b61045d565b6040516101a29190610d4e565b60405180910390f35b6101c560048036038101906101c09190610bea565b61049a565b6040516101d29190610e1e565b60405180910390f35b6101e36104e3565b005b6101ed61056b565b6040516101fa9190610e1e565b60405180910390f35b61020b610570565b6040516102189190610d4e565b60405180910390f35b610229610599565b6040516102369190610dbc565b60405180910390f35b61025960048036038101906102549190610c17565b6105d2565b005b610263610667565b6040516102709190610e1e565b60405180910390f35b610293600480360381019061028e9190610bea565b61066d565b005b6102af60048036038101906102aa9190610c57565b610765565b6040516102bc9190610d4e565b60405180910390f35b6040518060400160405280600e81526020017f43727970746f20446f676769657300000000000000000000000000000000000081525081565b6000600180549050905090565b600080600080600080600187815481106103285761032761101f565b5b9060005260206000209060020201905080600001548160010160009054906101000a900467ffffffffffffffff168260010160089054906101000a900463ffffffff1683600101600c9054906101000a900463ffffffff168460010160109054906101000a900461ffff16955095509550955095505091939590929450565b6103af610798565b73ffffffffffffffffffffffffffffffffffffffff166103cd610570565b73ffffffffffffffffffffffffffffffffffffffff1614610423576040517f08c379a000000000000000000000000000000000000000000000000000000000815260040161041a90610dfe565b60405180910390fd5b60146004541061043257600080fd5b6004600081548092919061044590610fa7565b9190505550610459600080600084336107a0565b5050565b60006002600083815260200190815260200160002060009054906101000a900473ffffffffffffffffffffffffffffffffffffffff169050919050565b6000600360008373ffffffffffffffffffffffffffffffffffffffff1673ffffffffffffffffffffffffffffffffffffffff168152602001908152602001600020549050919050565b6104eb610798565b73ffffffffffffffffffffffffffffffffffffffff16610509610570565b73ffffffffffffffffffffffffffffffffffffffff161461055f576040517f08c379a000000000000000000000000000000000000000000000000000000000815260040161055690610dfe565b60405180910390fd5b610569600061092c565b565b601481565b60008060009054906101000a900473ffffffffffffffffffffffffffffffffffffffff16905090565b6040518060400160405280600281526020017f434400000000000000000000000000000000000000000000000000000000000081525081565b600073ffffffffffffffffffffffffffffffffffffffff168273ffffffffffffffffffffffffffffffffffffffff16141561060c57600080fd5b3073ffffffffffffffffffffffffffffffffffffffff168273ffffffffffffffffffffffffffffffffffffffff16141561064557600080fd5b61064f33826109f0565b61065857600080fd5b610663338383610a2f565b5050565b60045481565b610675610798565b73ffffffffffffffffffffffffffffffffffffffff16610693610570565b73ffffffffffffffffffffffffffffffffffffffff16146106e9576040517f08c379a00000000000000000000000000000000000000000000000000000000081526004016106e090610dfe565b60405180910390fd5b600073ffffffffffffffffffffffffffffffffffffffff168173ffffffffffffffffffffffffffffffffffffffff161415610759576040517f08c379a000000000000000000000000000000000000000000000000000000000815260040161075090610dde565b60405180910390fd5b6107628161092c565b50565b60026020528060005260406000206000915054906101000a900473ffffffffffffffffffffffffffffffffffffffff1681565b600033905090565b6000806040518060a001604052808581526020014267ffffffffffffffff1681526020018863ffffffff1681526020018763ffffffff1681526020018661ffff16815250905060018190806001815401808255809150506001900390600052602060002090600202016000909190919091506000820151816000015560208201518160010160006101000a81548167ffffffffffffffff021916908367ffffffffffffffff16021790555060408201518160010160086101000a81548163ffffffff021916908363ffffffff160217905550606082015181600101600c6101000a81548163ffffffff021916908363ffffffff16021790555060808201518160010160106101000a81548161ffff021916908361ffff16021790555050506000600180805490506108d19190610ea8565b90507f0a5311bd2a6608f08a180df2ee7c5946819a649b204b554bb8e39825b2c50ad584828a8a8960405161090a959493929190610d69565b60405180910390a161091e60008583610a2f565b809250505095945050505050565b60008060009054906101000a900473ffffffffffffffffffffffffffffffffffffffff169050816000806101000a81548173ffffffffffffffffffffffffffffffffffffffff021916908373ffffffffffffffffffffffffffffffffffffffff1602179055508173ffffffffffffffffffffffffffffffffffffffff168173ffffffffffffffffffffffffffffffffffffffff167f8be0079c531659141344cd1fd0a4f28419497f9722a3daafe3b4186f6b6457e060405160405180910390a35050565b60008273ffffffffffffffffffffffffffffffffffffffff166002600084815260200190815260200160002060009054906101000a9050505092915050565b600360008373ffffffffffffffffffffffffffffffffffffffff1673ffffffffffffffffffffffffffffffffffffffff1681526020019081526020016000206000815480929190610a7f90610fa7565b9190505550816002600083815260200190815260200160002060006101000a81548173ffffffffffffffffffffffffffffffffffffffff021916908373ffffffffffffffffffffffffffffffffffffffff160217905550600073ffffffffffffffffffffffffffffffffffffffff168373ffffffffffffffffffffffffffffffffffffffff1614610b6057600360008473ffffffffffffffffffffffffffffffffffffffff1673ffffffffffffffffffffffffffffffffffffffff1681526020019081526020016000206000815480929190610b5a90610f7d565b91905055505b808273ffffffffffffffffffffffffffffffffffffffff168473ffffffffffffffffffffffffffffffffffffffff167fddf252ad1be2c89b69c2b068fc378daa952ba7f163c4a11628f55a4df523b3ef60405160405180910390a4505050565b600081359050610bcf816110dc565b92915050565b600081359050610be4816110f3565b92915050565b600060208284031215610c0057610bff61104e565b5b6000610c0e84828501610bc0565b91505092915050565b60008060408385031215610c2e57610c2d61104e565b5b6000610c3c85828601610bc0565b9250506020610c4d85828601610bd5565b9150509250929050565b600060208284031215610c6d57610c6c61104e565b5b6000610c7b84828501610bd5565b91505092915050565b610c8d81610edc565b82525050565b6000610c9e82610e8c565b610ca88185610e97565b9350610cb8818560208601610f4a565b610cc181611053565b840191505092915050565b6000610cd9602683610e97565b9150610ce482611064565b604082019050919050565b6000610cfc602083610e97565b9150610d07826110b3565b602082019050919050565b610d1b81610eee565b82525050565b610d2a81610f1c565b82525050565b610d3981610f26565b82525050565b610d4881610f36565b82525050565b6000602082019050610d636000830184610c84565b92915050565b600060a082019050610d7e6000830188610c84565b610d8b6020830187610d21565b610d986040830186610d21565b610da56060830185610d21565b610db26080830184610d21565b9695505050505050565b60006020820190508181036000830152610dd68184610c93565b905092915050565b60006020820190508181036000830152610df781610ccc565b9050919050565b60006020820190508181036000830152610e1781610cef565b9050919050565b6000602082019050610e336000830184610d21565b92915050565b600060a082019050610e4e6000830188610d21565b610e5b6020830187610d3f565b610e686040830186610d30565b610e756060830185610d30565b610e826080830184610d12565b9695505050505050565b600081519050919050565b600082825260208201905092915050565b6000610eb382610f1c565b9150610ebe83610f1c565b925082821015610ed157610ed0610ff0565b5b828203905092915050565b6000610ee782610efc565b9050919050565b600061ffff82169050919050565b600073ffffffffffffffffffffffffffffffffffffffff82169050919050565b6000819050919050565b600063ffffffff82169050919050565b600067ffffffffffffffff82169050919050565b60005b83811015610f68578082015181840152602081019050610f4d565b83811115610f77576000848401525b50505050565b6000610f8882610f1c565b91506000821415610f9c57610f9b610ff0565b5b600182039050919050565b6000610fb282610f1c565b91507fffffffffffffffffffffffffffffffffffffffffffffffffffffffffffffffff821415610fe557610fe4610ff0565b5b600182019050919050565b7f4e487b7100000000000000000000000000000000000000000000000000000000600052601160045260246000fd5b7f4e487b7100000000000000000000000000000000000000000000000000000000600052603260045260246000fd5b600080fd5b6000601f19601f8301169050919050565b7f4f776e61626c653a206e6577206f776e657220697320746865207a65726f206160008201527f6464726573730000000000000000000000000000000000000000000000000000602082015250565b7f4f776e61626c653a2063616c6c6572206973206e6f7420746865206f776e6572600082015250565b6110e581610edc565b81146110f057600080fd5b50565b6110fc81610f1c565b811461110757600080fd5b5056fea2646970667358221220f8a1d27dc6a62dcd349f240d43107c5dc628fefcb5f2ea27fa5f16505bea7bb364736f6c63430008070033",
    "immutableReferences": {},
    "source": "pragma solidity ^0.8.7;\r\n\r\nimport \"./IERC721.sol\";\r\nimport \"./Ownable.sol\";\r\n\r\ncontract DoggiesContract is IERC721, Ownable {\r\n\r\n    uint public constant CreationLimitGen0 = 20;\r\n    string public constant override name = \"Crypto Doggies\";\r\n    string public constant override symbol = \"CD\";\r\n\r\n    event Birth(\r\n        address owner, \r\n        uint doggieId, \r\n        uint mumId, \r\n        uint dadId, \r\n        uint genes\r\n    );\r\n\r\n    struct Doggie{\r\n        uint256 genes;\r\n        uint64 birthTime;\r\n        uint32 mumId;\r\n        uint32 dadId;\r\n        uint16 generation;\r\n    }\r\n\r\n    Doggie[] doggies;\r\n\r\n    mapping (uint256 => address) public doggieIndexToOwner;\r\n    mapping(address => uint) ownershiptokenCount;\r\n\r\n    uint public gen0Counter;\r\n\r\n    function getDoggie(uint _doggieId) external view returns(uint, uint64, uint32, uint32, uint16){\r\n        Doggie storage doggieToReturn = doggies[_doggieId];\r\n        return (\r\n            doggieToReturn.genes, \r\n            doggieToReturn.birthTime, \r\n            doggieToReturn.mumId, \r\n            doggieToReturn.dadId, \r\n            doggieToReturn.generation\r\n            );\r\n    }\r\n\r\n    function createDoggieGene0(uint _genes) public onlyOwner{\r\n        require(gen0Counter < CreationLimitGen0);\r\n\r\n        gen0Counter++;\r\n\r\n        _createDoggie(0, 0, 0, _genes, msg.sender);\r\n    }\r\n\r\n    function _createDoggie(\r\n        uint _mumId,\r\n        uint _dadId,\r\n        uint _generation,\r\n        uint _genes,\r\n        address _owner\r\n    )internal returns(uint) {\r\n        Doggie memory _doggie = Doggie({\r\n            genes: _genes,\r\n            birthTime: uint64(block.timestamp),\r\n            mumId: uint32(_mumId),\r\n            dadId: uint32(_dadId),\r\n            generation: uint16(_generation)\r\n        });\r\n        doggies.push(_doggie);\r\n        uint newDoggieId = doggies.length -1;\r\n        emit Birth(_owner, newDoggieId, _mumId, _dadId, _genes);\r\n\r\n        _transfer(address(0), _owner, newDoggieId);\r\n\r\n        return newDoggieId;\r\n        \r\n    }\r\n\r\n    \r\n    function balanceOf(address owner) external view override returns (uint256 balance) {\r\n        return ownershiptokenCount[owner];\r\n    }\r\n    \r\n    function totalSupply() external view override returns (uint256 total){\r\n        return doggies.length;\r\n    }\r\n\r\n    function ownerOf(uint256 tokenId) external view override returns (address) {\r\n        return doggieIndexToOwner[tokenId];\r\n    }\r\n\r\n    /* @dev Transfers `tokenId` token from `msg.sender` to `to`.\r\n     *\r\n     *\r\n     * Requirements:\r\n     *\r\n     * - `to` cannot be the zero address.\r\n     * - `to` can not be the contract address.\r\n     * - `tokenId` token must be owned by `msg.sender`.\r\n     *\r\n     * Emits a {Transfer} event.\r\n     */\r\n    function transfer(address _to, uint256 _tokenId) external override{\r\n        require(_to != address(0));\r\n        require(_to != address(this));\r\n        require(_owes(msg.sender, _tokenId));\r\n\r\n        _transfer(msg.sender, _to, _tokenId);\r\n\r\n    }\r\n\r\n    function _transfer(address _from, address _to, uint _tokenId) internal {\r\n        ownershiptokenCount[_to]++;\r\n        doggieIndexToOwner[_tokenId] = _to;\r\n\r\n        if(_from != address(0)){\r\n            ownershiptokenCount[_from]--;\r\n        }\r\n\r\n        emit Transfer(_from, _to, _tokenId);\r\n\r\n\r\n    }\r\n    \r\n    function _owes(address _claimant, uint _tokenId) internal view returns(bool) {\r\n        doggieIndexToOwner[_tokenId] == _claimant;\r\n\r\n    }\r\n}",
    "sourcePath": "C:/Users/evanMcGraneTest/Documents/EthereumProgramming/cryptodoggies/CryptoDoggies4/contracts/cryptodoggies.sol",
    "compiler": {
        "name": "solc",
        "version": "0.8.7+commit.e28d00a7.Emscripten.clang"
    },
    "schemaVersion": "3.3.4",
    "updatedAt": "2021-09-19T13:17:47.802Z",
    "networkType": "ethereum",
    "devdoc": {
        "kind": "dev",
        "methods": {
            "balanceOf(address)": {
                "details": "Returns the number of tokens in ``owner``'s account."
            },
            "owner()": {
                "details": "Returns the address of the current owner."
            },
            "ownerOf(uint256)": {
                "details": "Returns the owner of the `tokenId` token. Requirements: - `tokenId` must exist."
            },
            "renounceOwnership()": {
                "details": "Leaves the contract without owner. It will not be possible to call `onlyOwner` functions anymore. Can only be called by the current owner. NOTE: Renouncing ownership will leave the contract without an owner, thereby removing any functionality that is only available to the owner."
            },
            "transferOwnership(address)": {
                "details": "Transfers ownership of the contract to a new account (`newOwner`). Can only be called by the current owner."
            }
        },
        "version": 1
    },
    "userdoc": {
        "kind": "user",
        "methods": {},
        "version": 1
    }
}